{
  "contractName": "RecDapp",
  "abi": [
    {
      "inputs": [],
      "stateMutability": "nonpayable",
      "type": "constructor"
    },
    {
      "inputs": [],
      "name": "price",
      "outputs": [
        {
          "internalType": "uint256",
          "name": "",
          "type": "uint256"
        }
      ],
      "stateMutability": "view",
      "type": "function",
      "constant": true
    },
    {
      "inputs": [],
      "name": "producer",
      "outputs": [
        {
          "internalType": "address",
          "name": "",
          "type": "address"
        }
      ],
      "stateMutability": "view",
      "type": "function",
      "constant": true
    },
    {
      "inputs": [
        {
          "internalType": "address",
          "name": "",
          "type": "address"
        }
      ],
      "name": "recAccounts",
      "outputs": [
        {
          "internalType": "string",
          "name": "data",
          "type": "string"
        }
      ],
      "stateMutability": "view",
      "type": "function",
      "constant": true
    },
    {
      "inputs": [
        {
          "internalType": "address",
          "name": "",
          "type": "address"
        }
      ],
      "name": "requestAccounts",
      "outputs": [
        {
          "internalType": "address",
          "name": "user",
          "type": "address"
        },
        {
          "internalType": "uint256",
          "name": "kwh",
          "type": "uint256"
        }
      ],
      "stateMutability": "view",
      "type": "function",
      "constant": true
    },
    {
      "inputs": [
        {
          "internalType": "address",
          "name": "recAccountAddress",
          "type": "address"
        },
        {
          "internalType": "string",
          "name": "data",
          "type": "string"
        }
      ],
      "name": "issueRec",
      "outputs": [],
      "stateMutability": "nonpayable",
      "type": "function"
    },
    {
      "inputs": [
        {
          "internalType": "address",
          "name": "recAccountAddress",
          "type": "address"
        },
        {
          "internalType": "string",
          "name": "data",
          "type": "string"
        }
      ],
      "name": "verifyRec",
      "outputs": [
        {
          "internalType": "bool",
          "name": "",
          "type": "bool"
        }
      ],
      "stateMutability": "view",
      "type": "function",
      "constant": true
    },
    {
      "inputs": [
        {
          "internalType": "address",
          "name": "requestAccountAddress",
          "type": "address"
        },
        {
          "internalType": "uint256",
          "name": "kwh",
          "type": "uint256"
        }
      ],
      "name": "requestRec",
      "outputs": [],
      "stateMutability": "nonpayable",
      "type": "function"
    },
    {
      "inputs": [
        {
          "internalType": "address",
          "name": "recAccountAddress",
          "type": "address"
        },
        {
          "internalType": "string",
          "name": "data",
          "type": "string"
        },
        {
          "internalType": "uint256",
          "name": "_price",
          "type": "uint256"
        }
      ],
      "name": "issueAndSellRec",
      "outputs": [],
      "stateMutability": "payable",
      "type": "function",
      "payable": true
    }
  ],
  "bytecode": "0x608060405234801561001057600080fd5b50336000806101000a81548173ffffffffffffffffffffffffffffffffffffffff021916908373ffffffffffffffffffffffffffffffffffffffff160217905550610d9e806100606000396000f3fe60806040526004361061007b5760003560e01c80638a0cdd3a1161004e5780638a0cdd3a1461014e578063a035b1fe1461016a578063da3f906a14610195578063fef26ea4146101be5761007b565b80631c1c486a1461008057806337612672146100bd578063450d9620146100e85780637d1f970714610111575b600080fd5b34801561008c57600080fd5b506100a760048036038101906100a2919061077b565b6101fc565b6040516100b49190610acf565b60405180910390f35b3480156100c957600080fd5b506100d261029b565b6040516100df9190610a8b565b60405180910390f35b3480156100f457600080fd5b5061010f600480360381019061010a9190610836565b6102bf565b005b34801561011d57600080fd5b5061013860048036038101906101339190610752565b610353565b6040516101459190610aea565b60405180910390f35b610168600480360381019061016391906107cf565b6103f9565b005b34801561017657600080fd5b5061017f610572565b60405161018c9190610b4c565b60405180910390f35b3480156101a157600080fd5b506101bc60048036038101906101b7919061077b565b610578565b005b3480156101ca57600080fd5b506101e560048036038101906101e09190610752565b6105d9565b6040516101f3929190610aa6565b60405180910390f35b600080600260008573ffffffffffffffffffffffffffffffffffffffff1673ffffffffffffffffffffffffffffffffffffffff1681526020019081526020016000209050826040516020016102519190610a48565b604051602081830303815290604052805190602001208160000160405160200161027b9190610a5f565b604051602081830303815290604052805190602001201491505092915050565b60008054906101000a900473ffffffffffffffffffffffffffffffffffffffff1681565b6000600360008473ffffffffffffffffffffffffffffffffffffffff1673ffffffffffffffffffffffffffffffffffffffff1681526020019081526020016000209050338160000160006101000a81548173ffffffffffffffffffffffffffffffffffffffff021916908373ffffffffffffffffffffffffffffffffffffffff160217905550818160010181905550505050565b600260205280600052604060002060009150905080600001805461037690610c99565b80601f01602080910402602001604051908101604052809291908181526020018280546103a290610c99565b80156103ef5780601f106103c4576101008083540402835291602001916103ef565b820191906000526020600020905b8154815290600101906020018083116103d257829003601f168201915b5050505050905081565b8034101561043c576040517f08c379a000000000000000000000000000000000000000000000000000000000815260040161043390610b2c565b60405180910390fd5b6000600260008573ffffffffffffffffffffffffffffffffffffffff1673ffffffffffffffffffffffffffffffffffffffff16815260200190815260200160002090508281600001908051906020019061049792919061061d565b5060008060009054906101000a900473ffffffffffffffffffffffffffffffffffffffff16905060008173ffffffffffffffffffffffffffffffffffffffff16846040516104e490610a76565b60006040518083038185875af1925050503d8060008114610521576040519150601f19603f3d011682016040523d82523d6000602084013e610526565b606091505b505090508061056a576040517f08c379a000000000000000000000000000000000000000000000000000000000815260040161056190610b0c565b60405180910390fd5b505050505050565b60015481565b6000600260008473ffffffffffffffffffffffffffffffffffffffff1673ffffffffffffffffffffffffffffffffffffffff1681526020019081526020016000209050818160000190805190602001906105d392919061061d565b50505050565b60036020528060005260406000206000915090508060000160009054906101000a900473ffffffffffffffffffffffffffffffffffffffff16908060010154905082565b82805461062990610c99565b90600052602060002090601f01602090048101928261064b5760008555610692565b82601f1061066457805160ff1916838001178555610692565b82800160010185558215610692579182015b82811115610691578251825591602001919060010190610676565b5b50905061069f91906106a3565b5090565b5b808211156106bc5760008160009055506001016106a4565b5090565b60006106d36106ce84610b98565b610b67565b9050828152602081018484840111156106eb57600080fd5b6106f6848285610c57565b509392505050565b60008135905061070d81610d3a565b92915050565b600082601f83011261072457600080fd5b81356107348482602086016106c0565b91505092915050565b60008135905061074c81610d51565b92915050565b60006020828403121561076457600080fd5b6000610772848285016106fe565b91505092915050565b6000806040838503121561078e57600080fd5b600061079c858286016106fe565b925050602083013567ffffffffffffffff8111156107b957600080fd5b6107c585828601610713565b9150509250929050565b6000806000606084860312156107e457600080fd5b60006107f2868287016106fe565b935050602084013567ffffffffffffffff81111561080f57600080fd5b61081b86828701610713565b925050604061082c8682870161073d565b9150509250925092565b6000806040838503121561084957600080fd5b6000610857858286016106fe565b92505060206108688582860161073d565b9150509250929050565b61087b81610c0f565b82525050565b61088a81610c21565b82525050565b600061089b82610bdd565b6108a58185610bf3565b93506108b5818560208601610c66565b6108be81610d29565b840191505092915050565b60006108d482610bdd565b6108de8185610c04565b93506108ee818560208601610c66565b80840191505092915050565b6000815461090781610c99565b6109118186610c04565b9450600182166000811461092c576001811461093d57610970565b60ff19831686528186019350610970565b61094685610bc8565b60005b8381101561096857815481890152600182019150602081019050610949565b838801955050505b50505092915050565b6000610986601483610bf3565b91507f4661696c656420746f2073656e642045746865720000000000000000000000006000830152602082019050919050565b60006109c6600083610be8565b9150600082019050919050565b60006109e0602283610bf3565b91507f496e73756666696369656e742066756e647320746f207075726368617365205260008301527f45430000000000000000000000000000000000000000000000000000000000006020830152604082019050919050565b610a4281610c4d565b82525050565b6000610a5482846108c9565b915081905092915050565b6000610a6b82846108fa565b915081905092915050565b6000610a81826109b9565b9150819050919050565b6000602082019050610aa06000830184610872565b92915050565b6000604082019050610abb6000830185610872565b610ac86020830184610a39565b9392505050565b6000602082019050610ae46000830184610881565b92915050565b60006020820190508181036000830152610b048184610890565b905092915050565b60006020820190508181036000830152610b2581610979565b9050919050565b60006020820190508181036000830152610b45816109d3565b9050919050565b6000602082019050610b616000830184610a39565b92915050565b6000604051905081810181811067ffffffffffffffff82111715610b8e57610b8d610cfa565b5b8060405250919050565b600067ffffffffffffffff821115610bb357610bb2610cfa565b5b601f19601f8301169050602081019050919050565b60008190508160005260206000209050919050565b600081519050919050565b600081905092915050565b600082825260208201905092915050565b600081905092915050565b6000610c1a82610c2d565b9050919050565b60008115159050919050565b600073ffffffffffffffffffffffffffffffffffffffff82169050919050565b6000819050919050565b82818337600083830152505050565b60005b83811015610c84578082015181840152602081019050610c69565b83811115610c93576000848401525b50505050565b60006002820490506001821680610cb157607f821691505b60208210811415610cc557610cc4610ccb565b5b50919050565b7f4e487b7100000000000000000000000000000000000000000000000000000000600052602260045260246000fd5b7f4e487b7100000000000000000000000000000000000000000000000000000000600052604160045260246000fd5b6000601f19601f8301169050919050565b610d4381610c0f565b8114610d4e57600080fd5b50565b610d5a81610c4d565b8114610d6557600080fd5b5056fea26469706673582212203e4c0019282610330b8090dc89ac06944349892547f7c03f3dd4ca287f9b7a9f64736f6c63430008000033",
  "immutableReferences": {},
  "source": "// SPDX-License-Identifier: MIT\r\npragma solidity ^0.8.0;\r\n\r\ncontract RecDapp {\r\n    address public producer;\r\n    uint public price;\r\n\r\n    struct RecAccount {\r\n        string data;\r\n    }\r\n\r\n    struct RequestAccount {\r\n        address user;\r\n        uint kwh;\r\n    }\r\n\r\n    mapping(address => RecAccount) public recAccounts;\r\n    mapping(address => RequestAccount) public requestAccounts;\r\n\r\n    constructor() {\r\n        producer = msg.sender;\r\n    }\r\n\r\n    function issueRec(address recAccountAddress, string memory data) public {\r\n        RecAccount storage recAccount = recAccounts[recAccountAddress];\r\n        recAccount.data = data;\r\n    }\r\n\r\n    function verifyRec(address recAccountAddress, string memory data) public view returns (bool) {\r\n        RecAccount storage recAccount = recAccounts[recAccountAddress];\r\n        return keccak256(abi.encodePacked(recAccount.data)) == keccak256(abi.encodePacked(data));\r\n    }\r\n\r\n    function requestRec(address requestAccountAddress, uint kwh) public {\r\n        RequestAccount storage requestAccount = requestAccounts[requestAccountAddress];\r\n        requestAccount.user = msg.sender;\r\n        requestAccount.kwh = kwh;\r\n    }\r\n\r\n    function issueAndSellRec(address recAccountAddress, string memory data, uint _price) public payable {\r\n        require(msg.value >= _price, \"Insufficient funds to purchase REC\");\r\n\r\n        RecAccount storage recAccount = recAccounts[recAccountAddress];\r\n        recAccount.data = data;\r\n\r\n        //     producer  payable \r\n        address payable payableProducer = payable(producer);\r\n        (bool sent, ) = payableProducer.call{value: _price}(\"\");\r\n        require(sent, \"Failed to send Ether\");\r\n    }\r\n}\r\n",
  "sourcePath": "C:\\Users\\panag\\Desktop\\my_rec_dapp_eth\\contracts\\RecDapp.sol",
  "compiler": {
    "name": "solc",
    "version": "0.8.0+commit.c7dfd78e.Emscripten.clang"
  },
  "schemaVersion": "3.4.16",
  "updatedAt": "2024-06-16T21:04:48.119Z",
  "networkType": "ethereum",
  "devdoc": {
    "kind": "dev",
    "methods": {},
    "version": 1
  },
  "userdoc": {
    "kind": "user",
    "methods": {},
    "version": 1
  }
}